0000000000000001234567890ACME INC LTDA                      0001170831223344 3                                                                                                                         00                                           R00001
01123456789012310101111222233334444123456789666666123456789012000000000000000000000000000000000000000000000170831                                                                                        99               1234567890123456789012345  00002
309999999999999101             1234567891708310000000000000000000000000000000000000000000000000000000000000000000000000                                                                              10                                              00003
409999999999999101              123456789      000000000000000000000000000000000000000000000000000000000000                                                                                          20                                              00004
409999999999999101              123456789      000000000000000000000000000000000000000000000000000000000000                                                                                          30                                              00005
999999999999999                                                                                                00099999                                                                                                                              00006
